{
  "contractName": "Fundraiser",
  "abi": [
    {
      "inputs": [
        {
          "internalType": "string",
          "name": "_name",
          "type": "string"
        },
        {
          "internalType": "string",
          "name": "_url",
          "type": "string"
        },
        {
          "internalType": "string",
          "name": "_imageUrl",
          "type": "string"
        },
        {
          "internalType": "string",
          "name": "_description",
          "type": "string"
        },
        {
          "internalType": "address payable",
          "name": "_beneficiary",
          "type": "address"
        },
        {
          "internalType": "address",
          "name": "_custodian",
          "type": "address"
        }
      ],
      "stateMutability": "nonpayable",
      "type": "constructor"
    },
    {
      "anonymous": false,
      "inputs": [
        {
          "indexed": true,
          "internalType": "address",
          "name": "donor",
          "type": "address"
        },
        {
          "indexed": false,
          "internalType": "uint256",
          "name": "value",
          "type": "uint256"
        }
      ],
      "name": "DonationReceived",
      "type": "event"
    },
    {
      "anonymous": false,
      "inputs": [
        {
          "indexed": true,
          "internalType": "address",
          "name": "previousOwner",
          "type": "address"
        },
        {
          "indexed": true,
          "internalType": "address",
          "name": "newOwner",
          "type": "address"
        }
      ],
      "name": "OwnershipTransferred",
      "type": "event"
    },
    {
      "anonymous": false,
      "inputs": [
        {
          "indexed": false,
          "internalType": "uint256",
          "name": "amount",
          "type": "uint256"
        }
      ],
      "name": "Withdraw",
      "type": "event"
    },
    {
      "stateMutability": "payable",
      "type": "fallback"
    },
    {
      "inputs": [],
      "name": "beneficiary",
      "outputs": [
        {
          "internalType": "address payable",
          "name": "",
          "type": "address"
        }
      ],
      "stateMutability": "view",
      "type": "function"
    },
    {
      "inputs": [],
      "name": "description",
      "outputs": [
        {
          "internalType": "string",
          "name": "",
          "type": "string"
        }
      ],
      "stateMutability": "view",
      "type": "function"
    },
    {
      "inputs": [],
      "name": "donationsCount",
      "outputs": [
        {
          "internalType": "uint256",
          "name": "",
          "type": "uint256"
        }
      ],
      "stateMutability": "view",
      "type": "function"
    },
    {
      "inputs": [],
      "name": "imageUrl",
      "outputs": [
        {
          "internalType": "string",
          "name": "",
          "type": "string"
        }
      ],
      "stateMutability": "view",
      "type": "function"
    },
    {
      "inputs": [],
      "name": "name",
      "outputs": [
        {
          "internalType": "string",
          "name": "",
          "type": "string"
        }
      ],
      "stateMutability": "view",
      "type": "function"
    },
    {
      "inputs": [],
      "name": "owner",
      "outputs": [
        {
          "internalType": "address",
          "name": "",
          "type": "address"
        }
      ],
      "stateMutability": "view",
      "type": "function"
    },
    {
      "inputs": [],
      "name": "renounceOwnership",
      "outputs": [],
      "stateMutability": "nonpayable",
      "type": "function"
    },
    {
      "inputs": [],
      "name": "totalDonations",
      "outputs": [
        {
          "internalType": "uint256",
          "name": "",
          "type": "uint256"
        }
      ],
      "stateMutability": "view",
      "type": "function"
    },
    {
      "inputs": [
        {
          "internalType": "address",
          "name": "newOwner",
          "type": "address"
        }
      ],
      "name": "transferOwnership",
      "outputs": [],
      "stateMutability": "nonpayable",
      "type": "function"
    },
    {
      "inputs": [],
      "name": "url",
      "outputs": [
        {
          "internalType": "string",
          "name": "",
          "type": "string"
        }
      ],
      "stateMutability": "view",
      "type": "function"
    },
    {
      "inputs": [
        {
          "internalType": "address payable",
          "name": "_beneficiary",
          "type": "address"
        }
      ],
      "name": "setBeneficiary",
      "outputs": [],
      "stateMutability": "nonpayable",
      "type": "function"
    },
    {
      "inputs": [],
      "name": "myDonationsCount",
      "outputs": [
        {
          "internalType": "uint256",
          "name": "",
          "type": "uint256"
        }
      ],
      "stateMutability": "view",
      "type": "function"
    },
    {
      "inputs": [],
      "name": "donate",
      "outputs": [],
      "stateMutability": "payable",
      "type": "function"
    },
    {
      "inputs": [],
      "name": "myDonation",
      "outputs": [
        {
          "internalType": "uint256[]",
          "name": "values",
          "type": "uint256[]"
        },
        {
          "internalType": "uint256[]",
          "name": "dates",
          "type": "uint256[]"
        }
      ],
      "stateMutability": "view",
      "type": "function"
    },
    {
      "inputs": [],
      "name": "withdraw",
      "outputs": [],
      "stateMutability": "nonpayable",
      "type": "function"
    }
  ],
  "bytecode": "0x60806040523480156200001157600080fd5b5060405162001bc038038062001bc083398181016040528101906200003791906200061a565b620000576200004b6200011960201b60201c565b6200012160201b60201c565b85600190805190602001906200006f92919062000323565b5084600290805190602001906200008892919062000323565b508360039080519060200190620000a192919062000323565b508260049080519060200190620000ba92919062000323565b5081600560006101000a81548173ffffffffffffffffffffffffffffffffffffffff021916908373ffffffffffffffffffffffffffffffffffffffff1602179055506200010d81620001e560201b60201c565b505050505050620008b1565b600033905090565b60008060009054906101000a900473ffffffffffffffffffffffffffffffffffffffff169050816000806101000a81548173ffffffffffffffffffffffffffffffffffffffff021916908373ffffffffffffffffffffffffffffffffffffffff1602179055508173ffffffffffffffffffffffffffffffffffffffff168173ffffffffffffffffffffffffffffffffffffffff167f8be0079c531659141344cd1fd0a4f28419497f9722a3daafe3b4186f6b6457e060405160405180910390a35050565b620001f56200011960201b60201c565b73ffffffffffffffffffffffffffffffffffffffff166200021b620002fa60201b60201c565b73ffffffffffffffffffffffffffffffffffffffff161462000274576040517f08c379a00000000000000000000000000000000000000000000000000000000081526004016200026b9062000793565b60405180910390fd5b600073ffffffffffffffffffffffffffffffffffffffff168173ffffffffffffffffffffffffffffffffffffffff1603620002e6576040517f08c379a0000000000000000000000000000000000000000000000000000000008152600401620002dd906200082b565b60405180910390fd5b620002f7816200012160201b60201c565b50565b60008060009054906101000a900473ffffffffffffffffffffffffffffffffffffffff16905090565b82805462000331906200087c565b90600052602060002090601f016020900481019282620003555760008555620003a1565b82601f106200037057805160ff1916838001178555620003a1565b82800160010185558215620003a1579182015b82811115620003a057825182559160200191906001019062000383565b5b509050620003b09190620003b4565b5090565b5b80821115620003cf576000816000905550600101620003b5565b5090565b6000604051905090565b600080fd5b600080fd5b600080fd5b600080fd5b6000601f19601f8301169050919050565b7f4e487b7100000000000000000000000000000000000000000000000000000000600052604160045260246000fd5b6200043c82620003f1565b810181811067ffffffffffffffff821117156200045e576200045d62000402565b5b80604052505050565b600062000473620003d3565b905062000481828262000431565b919050565b600067ffffffffffffffff821115620004a457620004a362000402565b5b620004af82620003f1565b9050602081019050919050565b60005b83811015620004dc578082015181840152602081019050620004bf565b83811115620004ec576000848401525b50505050565b600062000509620005038462000486565b62000467565b905082815260208101848484011115620005285762000527620003ec565b5b62000535848285620004bc565b509392505050565b600082601f830112620005555762000554620003e7565b5b815162000567848260208601620004f2565b91505092915050565b600073ffffffffffffffffffffffffffffffffffffffff82169050919050565b60006200059d8262000570565b9050919050565b620005af8162000590565b8114620005bb57600080fd5b50565b600081519050620005cf81620005a4565b92915050565b6000620005e28262000570565b9050919050565b620005f481620005d5565b81146200060057600080fd5b50565b6000815190506200061481620005e9565b92915050565b60008060008060008060c087890312156200063a5762000639620003dd565b5b600087015167ffffffffffffffff8111156200065b576200065a620003e2565b5b6200066989828a016200053d565b965050602087015167ffffffffffffffff8111156200068d576200068c620003e2565b5b6200069b89828a016200053d565b955050604087015167ffffffffffffffff811115620006bf57620006be620003e2565b5b620006cd89828a016200053d565b945050606087015167ffffffffffffffff811115620006f157620006f0620003e2565b5b620006ff89828a016200053d565b93505060806200071289828a01620005be565b92505060a06200072589828a0162000603565b9150509295509295509295565b600082825260208201905092915050565b7f4f776e61626c653a2063616c6c6572206973206e6f7420746865206f776e6572600082015250565b60006200077b60208362000732565b9150620007888262000743565b602082019050919050565b60006020820190508181036000830152620007ae816200076c565b9050919050565b7f4f776e61626c653a206e6577206f776e657220697320746865207a65726f206160008201527f6464726573730000000000000000000000000000000000000000000000000000602082015250565b60006200081360268362000732565b91506200082082620007b5565b604082019050919050565b60006020820190508181036000830152620008468162000804565b9050919050565b7f4e487b7100000000000000000000000000000000000000000000000000000000600052602260045260246000fd5b600060028204905060018216806200089557607f821691505b602082108103620008ab57620008aa6200084d565b5b50919050565b6112ff80620008c16000396000f3fe6080604052600436106100ec5760003560e01c80635f6c59751161008a578063aba8315011610059578063aba83150146102d1578063de2ed893146102fc578063ed88c68e14610327578063f2fde38b14610331576100ed565b80635f6c597514610238578063715018a6146102645780637284e4161461027b5780638da5cb5b146102a6576100ed565b80631f522595116100c65780631f522595146101a057806338af3eed146101cb5780633ccfd60b146101f65780635600f04f1461020d576100ed565b80630180b97c1461012157806306fdde031461014c5780631c31f71014610177576100ed565b5b6101023460075461035a90919063ffffffff16565b6007819055506008600081548092919061011b90610d46565b91905055005b34801561012d57600080fd5b50610136610370565b6040516101439190610d9d565b60405180910390f35b34801561015857600080fd5b506101616103ba565b60405161016e9190610e51565b60405180910390f35b34801561018357600080fd5b5061019e60048036038101906101999190610ed6565b610448565b005b3480156101ac57600080fd5b506101b5610508565b6040516101c29190610d9d565b60405180910390f35b3480156101d757600080fd5b506101e061050e565b6040516101ed9190610f12565b60405180910390f35b34801561020257600080fd5b5061020b610534565b005b34801561021957600080fd5b50610222610658565b60405161022f9190610e51565b60405180910390f35b34801561024457600080fd5b5061024d6106e6565b60405161025b929190610feb565b60405180910390f35b34801561027057600080fd5b5061027961085b565b005b34801561028757600080fd5b506102906108e3565b60405161029d9190610e51565b60405180910390f35b3480156102b257600080fd5b506102bb610971565b6040516102c89190611043565b60405180910390f35b3480156102dd57600080fd5b506102e661099a565b6040516102f39190610e51565b60405180910390f35b34801561030857600080fd5b50610311610a28565b60405161031e9190610d9d565b60405180910390f35b61032f610a2e565b005b34801561033d57600080fd5b506103586004803603810190610353919061108a565b610b4a565b005b6000818361036891906110b7565b905092915050565b6000600660003373ffffffffffffffffffffffffffffffffffffffff1673ffffffffffffffffffffffffffffffffffffffff16815260200190815260200160002080549050905090565b600180546103c79061113c565b80601f01602080910402602001604051908101604052809291908181526020018280546103f39061113c565b80156104405780601f1061041557610100808354040283529160200191610440565b820191906000526020600020905b81548152906001019060200180831161042357829003601f168201915b505050505081565b610450610c41565b73ffffffffffffffffffffffffffffffffffffffff1661046e610971565b73ffffffffffffffffffffffffffffffffffffffff16146104c4576040517f08c379a00000000000000000000000000000000000000000000000000000000081526004016104bb906111b9565b60405180910390fd5b80600560006101000a81548173ffffffffffffffffffffffffffffffffffffffff021916908373ffffffffffffffffffffffffffffffffffffffff16021790555050565b60085481565b600560009054906101000a900473ffffffffffffffffffffffffffffffffffffffff1681565b61053c610c41565b73ffffffffffffffffffffffffffffffffffffffff1661055a610971565b73ffffffffffffffffffffffffffffffffffffffff16146105b0576040517f08c379a00000000000000000000000000000000000000000000000000000000081526004016105a7906111b9565b60405180910390fd5b6000479050600560009054906101000a900473ffffffffffffffffffffffffffffffffffffffff1673ffffffffffffffffffffffffffffffffffffffff166108fc829081150290604051600060405180830381858888f1935050505015801561061d573d6000803e3d6000fd5b507f5b6b431d4476a211bb7d41c20d1aab9ae2321deee0d20be3d9fc9b1093fa6e3d8160405161064d9190610d9d565b60405180910390a150565b600280546106659061113c565b80601f01602080910402602001604051908101604052809291908181526020018280546106919061113c565b80156106de5780601f106106b3576101008083540402835291602001916106de565b820191906000526020600020905b8154815290600101906020018083116106c157829003601f168201915b505050505081565b60608060006106f3610370565b90508067ffffffffffffffff81111561070f5761070e6111d9565b5b60405190808252806020026020018201604052801561073d5781602001602082028036833780820191505090505b5092508067ffffffffffffffff81111561075a576107596111d9565b5b6040519080825280602002602001820160405280156107885781602001602082028036833780820191505090505b50915060005b81811015610855576000600660003373ffffffffffffffffffffffffffffffffffffffff1673ffffffffffffffffffffffffffffffffffffffff16815260200190815260200160002082815481106107e9576107e8611208565b5b90600052602060002090600202019050806000015485838151811061081157610810611208565b5b602002602001018181525050806001015484838151811061083557610834611208565b5b60200260200101818152505050808061084d90610d46565b91505061078e565b50509091565b610863610c41565b73ffffffffffffffffffffffffffffffffffffffff16610881610971565b73ffffffffffffffffffffffffffffffffffffffff16146108d7576040517f08c379a00000000000000000000000000000000000000000000000000000000081526004016108ce906111b9565b60405180910390fd5b6108e16000610c49565b565b600480546108f09061113c565b80601f016020809104026020016040519081016040528092919081815260200182805461091c9061113c565b80156109695780601f1061093e57610100808354040283529160200191610969565b820191906000526020600020905b81548152906001019060200180831161094c57829003601f168201915b505050505081565b60008060009054906101000a900473ffffffffffffffffffffffffffffffffffffffff16905090565b600380546109a79061113c565b80601f01602080910402602001604051908101604052809291908181526020018280546109d39061113c565b8015610a205780601f106109f557610100808354040283529160200191610a20565b820191906000526020600020905b815481529060010190602001808311610a0357829003601f168201915b505050505081565b60075481565b60006040518060400160405280348152602001428152509050600660003373ffffffffffffffffffffffffffffffffffffffff1673ffffffffffffffffffffffffffffffffffffffff16815260200190815260200160002081908060018154018082558091505060019003906000526020600020906002020160009091909190915060008201518160000155602082015181600101555050610adb3460075461035a90919063ffffffff16565b60078190555060086000815480929190610af490610d46565b91905055503373ffffffffffffffffffffffffffffffffffffffff167f264f630d9efa0d07053a31163641d9fcc0adafc9d9e76f1c37c2ce3a558d2c5234604051610b3f9190610d9d565b60405180910390a250565b610b52610c41565b73ffffffffffffffffffffffffffffffffffffffff16610b70610971565b73ffffffffffffffffffffffffffffffffffffffff1614610bc6576040517f08c379a0000000000000000000000000000000000000000000000000000000008152600401610bbd906111b9565b60405180910390fd5b600073ffffffffffffffffffffffffffffffffffffffff168173ffffffffffffffffffffffffffffffffffffffff1603610c35576040517f08c379a0000000000000000000000000000000000000000000000000000000008152600401610c2c906112a9565b60405180910390fd5b610c3e81610c49565b50565b600033905090565b60008060009054906101000a900473ffffffffffffffffffffffffffffffffffffffff169050816000806101000a81548173ffffffffffffffffffffffffffffffffffffffff021916908373ffffffffffffffffffffffffffffffffffffffff1602179055508173ffffffffffffffffffffffffffffffffffffffff168173ffffffffffffffffffffffffffffffffffffffff167f8be0079c531659141344cd1fd0a4f28419497f9722a3daafe3b4186f6b6457e060405160405180910390a35050565b7f4e487b7100000000000000000000000000000000000000000000000000000000600052601160045260246000fd5b6000819050919050565b6000610d5182610d3c565b91507fffffffffffffffffffffffffffffffffffffffffffffffffffffffffffffffff8203610d8357610d82610d0d565b5b600182019050919050565b610d9781610d3c565b82525050565b6000602082019050610db26000830184610d8e565b92915050565b600081519050919050565b600082825260208201905092915050565b60005b83811015610df2578082015181840152602081019050610dd7565b83811115610e01576000848401525b50505050565b6000601f19601f8301169050919050565b6000610e2382610db8565b610e2d8185610dc3565b9350610e3d818560208601610dd4565b610e4681610e07565b840191505092915050565b60006020820190508181036000830152610e6b8184610e18565b905092915050565b600080fd5b600073ffffffffffffffffffffffffffffffffffffffff82169050919050565b6000610ea382610e78565b9050919050565b610eb381610e98565b8114610ebe57600080fd5b50565b600081359050610ed081610eaa565b92915050565b600060208284031215610eec57610eeb610e73565b5b6000610efa84828501610ec1565b91505092915050565b610f0c81610e98565b82525050565b6000602082019050610f276000830184610f03565b92915050565b600081519050919050565b600082825260208201905092915050565b6000819050602082019050919050565b610f6281610d3c565b82525050565b6000610f748383610f59565b60208301905092915050565b6000602082019050919050565b6000610f9882610f2d565b610fa28185610f38565b9350610fad83610f49565b8060005b83811015610fde578151610fc58882610f68565b9750610fd083610f80565b925050600181019050610fb1565b5085935050505092915050565b600060408201905081810360008301526110058185610f8d565b905081810360208301526110198184610f8d565b90509392505050565b600061102d82610e78565b9050919050565b61103d81611022565b82525050565b60006020820190506110586000830184611034565b92915050565b61106781611022565b811461107257600080fd5b50565b6000813590506110848161105e565b92915050565b6000602082840312156110a05761109f610e73565b5b60006110ae84828501611075565b91505092915050565b60006110c282610d3c565b91506110cd83610d3c565b9250827fffffffffffffffffffffffffffffffffffffffffffffffffffffffffffffffff0382111561110257611101610d0d565b5b828201905092915050565b7f4e487b7100000000000000000000000000000000000000000000000000000000600052602260045260246000fd5b6000600282049050600182168061115457607f821691505b6020821081036111675761116661110d565b5b50919050565b7f4f776e61626c653a2063616c6c6572206973206e6f7420746865206f776e6572600082015250565b60006111a3602083610dc3565b91506111ae8261116d565b602082019050919050565b600060208201905081810360008301526111d281611196565b9050919050565b7f4e487b7100000000000000000000000000000000000000000000000000000000600052604160045260246000fd5b7f4e487b7100000000000000000000000000000000000000000000000000000000600052603260045260246000fd5b7f4f776e61626c653a206e6577206f776e657220697320746865207a65726f206160008201527f6464726573730000000000000000000000000000000000000000000000000000602082015250565b6000611293602683610dc3565b915061129e82611237565b604082019050919050565b600060208201905081810360008301526112c281611286565b905091905056fea26469706673582212208d008c38f3a0d7dbbfdc9e1123ed4031c940db99674d51988078712244d5d1ad64736f6c634300080d0033",
  "immutableReferences": {},
  "source": "// SPDX-License-Identifier: MIT\n\npragma solidity >=0.8.0 <0.9.0;\n\nimport \"@openzeppelin/contracts/access/Ownable.sol\";\nimport \"@openzeppelin/contracts/utils/math/SafeMath.sol\";\n\ncontract Fundraiser is Ownable {\n    using SafeMath for uint256;\n\n    string public name;\n    string public url;\n    string public imageUrl;\n    string public description;\n    address payable public beneficiary;\n    struct Donation {\n        uint256 value;\n        uint256 date;\n    }\n    mapping(address => Donation[]) private _donations;\n    uint256 public totalDonations;\n    uint256 public donationsCount;\n    event DonationReceived(address indexed donor, uint256 value);\n    event Withdraw(uint256 amount);\n\n    constructor(\n        string memory _name,\n        string memory _url,\n        string memory _imageUrl,\n        string memory _description,\n        address payable _beneficiary,\n        address _custodian\n    ) {\n        name = _name;\n        url = _url;\n        imageUrl = _imageUrl;\n        description = _description;\n        beneficiary = _beneficiary;\n        transferOwnership(_custodian);\n    }\n\n    function setBeneficiary(address payable _beneficiary) public onlyOwner {\n        beneficiary = _beneficiary;\n    }\n\n    function myDonationsCount() public view returns (uint256) {\n        return _donations[msg.sender].length;\n    }\n\n    function donate() public payable {\n        Donation memory donation = Donation({\n            value: msg.value,\n            date: block.timestamp\n        });\n\n        _donations[msg.sender].push(donation);\n        totalDonations = totalDonations.add(msg.value);\n        donationsCount++;\n\n        emit DonationReceived(msg.sender, msg.value);\n    }\n\n    function myDonation()\n        public\n        view\n        returns (uint256[] memory values, uint256[] memory dates)\n    {\n        uint256 count = myDonationsCount();\n        values = new uint256[](count);\n        dates = new uint256[](count);\n\n        for (uint256 i = 0; i < count; i++) {\n            Donation storage donation = _donations[msg.sender][i];\n            values[i] = donation.value;\n            dates[i] = donation.date;\n        }\n\n        return (values, dates);\n    }\n\n    function withdraw() public onlyOwner {\n        uint256 balance = address(this).balance;\n        beneficiary.transfer(balance);\n\n        emit Withdraw(balance);\n    }\n\n    fallback() external payable {\n        totalDonations = totalDonations.add(msg.value);\n        donationsCount++;\n    }\n}\n",
  "sourcePath": "/Users/tuananh/Documents/ethereum/fundraiser_v2/contracts/Fundraiser.sol",
  "compiler": {
    "name": "solc",
    "version": "0.8.13+commit.abaa5c0e.Emscripten.clang"
  },
  "schemaVersion": "3.4.5",
  "updatedAt": "2022-03-24T14:52:45.824Z",
  "devdoc": {
    "kind": "dev",
    "methods": {
      "owner()": {
        "details": "Returns the address of the current owner."
      },
      "renounceOwnership()": {
        "details": "Leaves the contract without owner. It will not be possible to call `onlyOwner` functions anymore. Can only be called by the current owner. NOTE: Renouncing ownership will leave the contract without an owner, thereby removing any functionality that is only available to the owner."
      },
      "transferOwnership(address)": {
        "details": "Transfers ownership of the contract to a new account (`newOwner`). Can only be called by the current owner."
      }
    },
    "version": 1
  },
  "userdoc": {
    "kind": "user",
    "methods": {},
    "version": 1
  }
}