{
  "contractName": "FundraiserFactory",
  "abi": [
    {
      "anonymous": false,
      "inputs": [
        {
          "indexed": true,
          "internalType": "contract Fundraiser",
          "name": "fundraiser",
          "type": "address"
        }
      ],
      "name": "FundraiserCreated",
      "type": "event"
    },
    {
      "inputs": [],
      "name": "fundraisersCount",
      "outputs": [
        {
          "internalType": "uint256",
          "name": "",
          "type": "uint256"
        }
      ],
      "stateMutability": "view",
      "type": "function",
      "constant": true
    },
    {
      "inputs": [
        {
          "internalType": "string",
          "name": "name",
          "type": "string"
        },
        {
          "internalType": "string",
          "name": "url",
          "type": "string"
        },
        {
          "internalType": "string",
          "name": "imageUrl",
          "type": "string"
        },
        {
          "internalType": "string",
          "name": "description",
          "type": "string"
        },
        {
          "internalType": "address payable",
          "name": "beneficiary",
          "type": "address"
        }
      ],
      "name": "createFundraiser",
      "outputs": [],
      "stateMutability": "nonpayable",
      "type": "function"
    },
    {
      "inputs": [
        {
          "internalType": "uint256",
          "name": "limit",
          "type": "uint256"
        },
        {
          "internalType": "uint256",
          "name": "offset",
          "type": "uint256"
        }
      ],
      "name": "fundraisers",
      "outputs": [
        {
          "internalType": "contract Fundraiser[]",
          "name": "collection",
          "type": "address[]"
        }
      ],
      "stateMutability": "view",
      "type": "function",
      "constant": true
    }
  ],
  "bytecode": "0x608060405234801561001057600080fd5b5061275d806100206000396000f3fe60806040523480156200001157600080fd5b5060043610620000465760003560e01c806311d752ad146200004b578063704914f8146200006b5780639d3b435514620000a1575b600080fd5b62000069600480360381019062000063919062000559565b620000c3565b005b62000089600480360381019062000083919062000698565b620001b8565b60405162000098919062000807565b60405180910390f35b620000ab62000364565b604051620000ba91906200083c565b60405180910390f35b6000858585858533604051620000d99062000370565b620000ea9695949392919062000922565b604051809103906000f08015801562000107573d6000803e3d6000fd5b5090506000819080600181540180825580915050600190039060005260206000200160009091909190916101000a81548173ffffffffffffffffffffffffffffffffffffffff021916908373ffffffffffffffffffffffffffffffffffffffff1602179055508073ffffffffffffffffffffffffffffffffffffffff167f2557643b2d3fb1068494cb23ac8d1b3b2a857564fe606f86020e33e2351e42dc60405160405180910390a2505050505050565b6060620001c462000364565b82111562000209576040517f08c379a00000000000000000000000000000000000000000000000000000000081526004016200020090620009fb565b60405180910390fd5b6000826200021662000364565b62000222919062000a4c565b905083811062000233578362000235565b805b905060148110620002485760146200024a565b805b90508067ffffffffffffffff811115620002695762000268620003ad565b5b604051908082528060200260200182016040528015620002985781602001602082028036833780820191505090505b50915060005b818110156200035c5760008185620002b7919062000a87565b81548110620002cb57620002ca62000ae4565b5b9060005260206000200160009054906101000a900473ffffffffffffffffffffffffffffffffffffffff168382815181106200030c576200030b62000ae4565b5b602002602001019073ffffffffffffffffffffffffffffffffffffffff16908173ffffffffffffffffffffffffffffffffffffffff16815250508080620003539062000b13565b9150506200029e565b505092915050565b60008080549050905090565b611bc68062000b6283390190565b6000604051905090565b600080fd5b600080fd5b600080fd5b600080fd5b6000601f19601f8301169050919050565b7f4e487b7100000000000000000000000000000000000000000000000000000000600052604160045260246000fd5b620003e7826200039c565b810181811067ffffffffffffffff82111715620004095762000408620003ad565b5b80604052505050565b60006200041e6200037e565b90506200042c8282620003dc565b919050565b600067ffffffffffffffff8211156200044f576200044e620003ad565b5b6200045a826200039c565b9050602081019050919050565b82818337600083830152505050565b60006200048d620004878462000431565b62000412565b905082815260208101848484011115620004ac57620004ab62000397565b5b620004b984828562000467565b509392505050565b600082601f830112620004d957620004d862000392565b5b8135620004eb84826020860162000476565b91505092915050565b600073ffffffffffffffffffffffffffffffffffffffff82169050919050565b60006200052182620004f4565b9050919050565b620005338162000514565b81146200053f57600080fd5b50565b600081359050620005538162000528565b92915050565b600080600080600060a0868803121562000578576200057762000388565b5b600086013567ffffffffffffffff8111156200059957620005986200038d565b5b620005a788828901620004c1565b955050602086013567ffffffffffffffff811115620005cb57620005ca6200038d565b5b620005d988828901620004c1565b945050604086013567ffffffffffffffff811115620005fd57620005fc6200038d565b5b6200060b88828901620004c1565b935050606086013567ffffffffffffffff8111156200062f576200062e6200038d565b5b6200063d88828901620004c1565b9250506080620006508882890162000542565b9150509295509295909350565b6000819050919050565b62000672816200065d565b81146200067e57600080fd5b50565b600081359050620006928162000667565b92915050565b60008060408385031215620006b257620006b162000388565b5b6000620006c28582860162000681565b9250506020620006d58582860162000681565b9150509250929050565b600081519050919050565b600082825260208201905092915050565b6000819050602082019050919050565b6000819050919050565b600062000736620007306200072a84620004f4565b6200070b565b620004f4565b9050919050565b60006200074a8262000715565b9050919050565b60006200075e826200073d565b9050919050565b620007708162000751565b82525050565b600062000784838362000765565b60208301905092915050565b6000602082019050919050565b6000620007aa82620006df565b620007b68185620006ea565b9350620007c383620006fb565b8060005b83811015620007fa578151620007de888262000776565b9750620007eb8362000790565b925050600181019050620007c7565b5085935050505092915050565b600060208201905081810360008301526200082381846200079d565b905092915050565b62000836816200065d565b82525050565b60006020820190506200085360008301846200082b565b92915050565b600081519050919050565b600082825260208201905092915050565b60005b838110156200089557808201518184015260208101905062000878565b83811115620008a5576000848401525b50505050565b6000620008b88262000859565b620008c4818562000864565b9350620008d681856020860162000875565b620008e1816200039c565b840191505092915050565b620008f78162000514565b82525050565b60006200090a82620004f4565b9050919050565b6200091c81620008fd565b82525050565b600060c08201905081810360008301526200093e8189620008ab565b90508181036020830152620009548188620008ab565b905081810360408301526200096a8187620008ab565b90508181036060830152620009808186620008ab565b9050620009916080830185620008ec565b620009a060a083018462000911565b979650505050505050565b7f6f6666736574206f7574206f6620626f756e6473000000000000000000000000600082015250565b6000620009e360148362000864565b9150620009f082620009ab565b602082019050919050565b6000602082019050818103600083015262000a1681620009d4565b9050919050565b7f4e487b7100000000000000000000000000000000000000000000000000000000600052601160045260246000fd5b600062000a59826200065d565b915062000a66836200065d565b92508282101562000a7c5762000a7b62000a1d565b5b828203905092915050565b600062000a94826200065d565b915062000aa1836200065d565b9250827fffffffffffffffffffffffffffffffffffffffffffffffffffffffffffffffff0382111562000ad95762000ad862000a1d565b5b828201905092915050565b7f4e487b7100000000000000000000000000000000000000000000000000000000600052603260045260246000fd5b600062000b20826200065d565b91507fffffffffffffffffffffffffffffffffffffffffffffffffffffffffffffffff82141562000b565762000b5562000a1d565b5b60018201905091905056fe60806040523480156200001157600080fd5b5060405162001bc638038062001bc683398181016040528101906200003791906200061b565b620000576200004b6200011960201b60201c565b6200012160201b60201c565b85600190805190602001906200006f92919062000324565b5084600290805190602001906200008892919062000324565b508360039080519060200190620000a192919062000324565b508260049080519060200190620000ba92919062000324565b5081600560006101000a81548173ffffffffffffffffffffffffffffffffffffffff021916908373ffffffffffffffffffffffffffffffffffffffff1602179055506200010d81620001e560201b60201c565b505050505050620008b3565b600033905090565b60008060009054906101000a900473ffffffffffffffffffffffffffffffffffffffff169050816000806101000a81548173ffffffffffffffffffffffffffffffffffffffff021916908373ffffffffffffffffffffffffffffffffffffffff1602179055508173ffffffffffffffffffffffffffffffffffffffff168173ffffffffffffffffffffffffffffffffffffffff167f8be0079c531659141344cd1fd0a4f28419497f9722a3daafe3b4186f6b6457e060405160405180910390a35050565b620001f56200011960201b60201c565b73ffffffffffffffffffffffffffffffffffffffff166200021b620002fb60201b60201c565b73ffffffffffffffffffffffffffffffffffffffff161462000274576040517f08c379a00000000000000000000000000000000000000000000000000000000081526004016200026b9062000794565b60405180910390fd5b600073ffffffffffffffffffffffffffffffffffffffff168173ffffffffffffffffffffffffffffffffffffffff161415620002e7576040517f08c379a0000000000000000000000000000000000000000000000000000000008152600401620002de906200082c565b60405180910390fd5b620002f8816200012160201b60201c565b50565b60008060009054906101000a900473ffffffffffffffffffffffffffffffffffffffff16905090565b82805462000332906200087d565b90600052602060002090601f016020900481019282620003565760008555620003a2565b82601f106200037157805160ff1916838001178555620003a2565b82800160010185558215620003a2579182015b82811115620003a157825182559160200191906001019062000384565b5b509050620003b19190620003b5565b5090565b5b80821115620003d0576000816000905550600101620003b6565b5090565b6000604051905090565b600080fd5b600080fd5b600080fd5b600080fd5b6000601f19601f8301169050919050565b7f4e487b7100000000000000000000000000000000000000000000000000000000600052604160045260246000fd5b6200043d82620003f2565b810181811067ffffffffffffffff821117156200045f576200045e62000403565b5b80604052505050565b600062000474620003d4565b905062000482828262000432565b919050565b600067ffffffffffffffff821115620004a557620004a462000403565b5b620004b082620003f2565b9050602081019050919050565b60005b83811015620004dd578082015181840152602081019050620004c0565b83811115620004ed576000848401525b50505050565b60006200050a620005048462000487565b62000468565b905082815260208101848484011115620005295762000528620003ed565b5b62000536848285620004bd565b509392505050565b600082601f830112620005565762000555620003e8565b5b815162000568848260208601620004f3565b91505092915050565b600073ffffffffffffffffffffffffffffffffffffffff82169050919050565b60006200059e8262000571565b9050919050565b620005b08162000591565b8114620005bc57600080fd5b50565b600081519050620005d081620005a5565b92915050565b6000620005e38262000571565b9050919050565b620005f581620005d6565b81146200060157600080fd5b50565b6000815190506200061581620005ea565b92915050565b60008060008060008060c087890312156200063b576200063a620003de565b5b600087015167ffffffffffffffff8111156200065c576200065b620003e3565b5b6200066a89828a016200053e565b965050602087015167ffffffffffffffff8111156200068e576200068d620003e3565b5b6200069c89828a016200053e565b955050604087015167ffffffffffffffff811115620006c057620006bf620003e3565b5b620006ce89828a016200053e565b945050606087015167ffffffffffffffff811115620006f257620006f1620003e3565b5b6200070089828a016200053e565b93505060806200071389828a01620005bf565b92505060a06200072689828a0162000604565b9150509295509295509295565b600082825260208201905092915050565b7f4f776e61626c653a2063616c6c6572206973206e6f7420746865206f776e6572600082015250565b60006200077c60208362000733565b9150620007898262000744565b602082019050919050565b60006020820190508181036000830152620007af816200076d565b9050919050565b7f4f776e61626c653a206e6577206f776e657220697320746865207a65726f206160008201527f6464726573730000000000000000000000000000000000000000000000000000602082015250565b60006200081460268362000733565b91506200082182620007b6565b604082019050919050565b60006020820190508181036000830152620008478162000805565b9050919050565b7f4e487b7100000000000000000000000000000000000000000000000000000000600052602260045260246000fd5b600060028204905060018216806200089657607f821691505b60208210811415620008ad57620008ac6200084e565b5b50919050565b61130380620008c36000396000f3fe6080604052600436106100ec5760003560e01c80635f6c59751161008a578063aba8315011610059578063aba83150146102d2578063de2ed893146102fd578063ed88c68e14610328578063f2fde38b14610332576100ed565b80635f6c597514610239578063715018a6146102655780637284e4161461027c5780638da5cb5b146102a7576100ed565b80631f522595116100c65780631f522595146101a157806338af3eed146101cc5780633ccfd60b146101f75780635600f04f1461020e576100ed565b80630180b97c1461012257806306fdde031461014d5780631c31f71014610178576100ed565b5b6101023460075461035b90919063ffffffff16565b6007819055506008600081548092919061011b90610d48565b9190505550005b34801561012e57600080fd5b50610137610371565b6040516101449190610da0565b60405180910390f35b34801561015957600080fd5b506101626103bb565b60405161016f9190610e54565b60405180910390f35b34801561018457600080fd5b5061019f600480360381019061019a9190610ed9565b610449565b005b3480156101ad57600080fd5b506101b6610509565b6040516101c39190610da0565b60405180910390f35b3480156101d857600080fd5b506101e161050f565b6040516101ee9190610f15565b60405180910390f35b34801561020357600080fd5b5061020c610535565b005b34801561021a57600080fd5b50610223610659565b6040516102309190610e54565b60405180910390f35b34801561024557600080fd5b5061024e6106e7565b60405161025c929190610fee565b60405180910390f35b34801561027157600080fd5b5061027a61085c565b005b34801561028857600080fd5b506102916108e4565b60405161029e9190610e54565b60405180910390f35b3480156102b357600080fd5b506102bc610972565b6040516102c99190611046565b60405180910390f35b3480156102de57600080fd5b506102e761099b565b6040516102f49190610e54565b60405180910390f35b34801561030957600080fd5b50610312610a29565b60405161031f9190610da0565b60405180910390f35b610330610a2f565b005b34801561033e57600080fd5b506103596004803603810190610354919061108d565b610b4b565b005b6000818361036991906110ba565b905092915050565b6000600660003373ffffffffffffffffffffffffffffffffffffffff1673ffffffffffffffffffffffffffffffffffffffff16815260200190815260200160002080549050905090565b600180546103c89061113f565b80601f01602080910402602001604051908101604052809291908181526020018280546103f49061113f565b80156104415780601f1061041657610100808354040283529160200191610441565b820191906000526020600020905b81548152906001019060200180831161042457829003601f168201915b505050505081565b610451610c43565b73ffffffffffffffffffffffffffffffffffffffff1661046f610972565b73ffffffffffffffffffffffffffffffffffffffff16146104c5576040517f08c379a00000000000000000000000000000000000000000000000000000000081526004016104bc906111bd565b60405180910390fd5b80600560006101000a81548173ffffffffffffffffffffffffffffffffffffffff021916908373ffffffffffffffffffffffffffffffffffffffff16021790555050565b60085481565b600560009054906101000a900473ffffffffffffffffffffffffffffffffffffffff1681565b61053d610c43565b73ffffffffffffffffffffffffffffffffffffffff1661055b610972565b73ffffffffffffffffffffffffffffffffffffffff16146105b1576040517f08c379a00000000000000000000000000000000000000000000000000000000081526004016105a8906111bd565b60405180910390fd5b6000479050600560009054906101000a900473ffffffffffffffffffffffffffffffffffffffff1673ffffffffffffffffffffffffffffffffffffffff166108fc829081150290604051600060405180830381858888f1935050505015801561061e573d6000803e3d6000fd5b507f5b6b431d4476a211bb7d41c20d1aab9ae2321deee0d20be3d9fc9b1093fa6e3d8160405161064e9190610da0565b60405180910390a150565b600280546106669061113f565b80601f01602080910402602001604051908101604052809291908181526020018280546106929061113f565b80156106df5780601f106106b4576101008083540402835291602001916106df565b820191906000526020600020905b8154815290600101906020018083116106c257829003601f168201915b505050505081565b60608060006106f4610371565b90508067ffffffffffffffff8111156107105761070f6111dd565b5b60405190808252806020026020018201604052801561073e5781602001602082028036833780820191505090505b5092508067ffffffffffffffff81111561075b5761075a6111dd565b5b6040519080825280602002602001820160405280156107895781602001602082028036833780820191505090505b50915060005b81811015610856576000600660003373ffffffffffffffffffffffffffffffffffffffff1673ffffffffffffffffffffffffffffffffffffffff16815260200190815260200160002082815481106107ea576107e961120c565b5b9060005260206000209060020201905080600001548583815181106108125761081161120c565b5b60200260200101818152505080600101548483815181106108365761083561120c565b5b60200260200101818152505050808061084e90610d48565b91505061078f565b50509091565b610864610c43565b73ffffffffffffffffffffffffffffffffffffffff16610882610972565b73ffffffffffffffffffffffffffffffffffffffff16146108d8576040517f08c379a00000000000000000000000000000000000000000000000000000000081526004016108cf906111bd565b60405180910390fd5b6108e26000610c4b565b565b600480546108f19061113f565b80601f016020809104026020016040519081016040528092919081815260200182805461091d9061113f565b801561096a5780601f1061093f5761010080835404028352916020019161096a565b820191906000526020600020905b81548152906001019060200180831161094d57829003601f168201915b505050505081565b60008060009054906101000a900473ffffffffffffffffffffffffffffffffffffffff16905090565b600380546109a89061113f565b80601f01602080910402602001604051908101604052809291908181526020018280546109d49061113f565b8015610a215780601f106109f657610100808354040283529160200191610a21565b820191906000526020600020905b815481529060010190602001808311610a0457829003601f168201915b505050505081565b60075481565b60006040518060400160405280348152602001428152509050600660003373ffffffffffffffffffffffffffffffffffffffff1673ffffffffffffffffffffffffffffffffffffffff16815260200190815260200160002081908060018154018082558091505060019003906000526020600020906002020160009091909190915060008201518160000155602082015181600101555050610adc3460075461035b90919063ffffffff16565b60078190555060086000815480929190610af590610d48565b91905055503373ffffffffffffffffffffffffffffffffffffffff167f264f630d9efa0d07053a31163641d9fcc0adafc9d9e76f1c37c2ce3a558d2c5234604051610b409190610da0565b60405180910390a250565b610b53610c43565b73ffffffffffffffffffffffffffffffffffffffff16610b71610972565b73ffffffffffffffffffffffffffffffffffffffff1614610bc7576040517f08c379a0000000000000000000000000000000000000000000000000000000008152600401610bbe906111bd565b60405180910390fd5b600073ffffffffffffffffffffffffffffffffffffffff168173ffffffffffffffffffffffffffffffffffffffff161415610c37576040517f08c379a0000000000000000000000000000000000000000000000000000000008152600401610c2e906112ad565b60405180910390fd5b610c4081610c4b565b50565b600033905090565b60008060009054906101000a900473ffffffffffffffffffffffffffffffffffffffff169050816000806101000a81548173ffffffffffffffffffffffffffffffffffffffff021916908373ffffffffffffffffffffffffffffffffffffffff1602179055508173ffffffffffffffffffffffffffffffffffffffff168173ffffffffffffffffffffffffffffffffffffffff167f8be0079c531659141344cd1fd0a4f28419497f9722a3daafe3b4186f6b6457e060405160405180910390a35050565b7f4e487b7100000000000000000000000000000000000000000000000000000000600052601160045260246000fd5b6000819050919050565b6000610d5382610d3e565b91507fffffffffffffffffffffffffffffffffffffffffffffffffffffffffffffffff821415610d8657610d85610d0f565b5b600182019050919050565b610d9a81610d3e565b82525050565b6000602082019050610db56000830184610d91565b92915050565b600081519050919050565b600082825260208201905092915050565b60005b83811015610df5578082015181840152602081019050610dda565b83811115610e04576000848401525b50505050565b6000601f19601f8301169050919050565b6000610e2682610dbb565b610e308185610dc6565b9350610e40818560208601610dd7565b610e4981610e0a565b840191505092915050565b60006020820190508181036000830152610e6e8184610e1b565b905092915050565b600080fd5b600073ffffffffffffffffffffffffffffffffffffffff82169050919050565b6000610ea682610e7b565b9050919050565b610eb681610e9b565b8114610ec157600080fd5b50565b600081359050610ed381610ead565b92915050565b600060208284031215610eef57610eee610e76565b5b6000610efd84828501610ec4565b91505092915050565b610f0f81610e9b565b82525050565b6000602082019050610f2a6000830184610f06565b92915050565b600081519050919050565b600082825260208201905092915050565b6000819050602082019050919050565b610f6581610d3e565b82525050565b6000610f778383610f5c565b60208301905092915050565b6000602082019050919050565b6000610f9b82610f30565b610fa58185610f3b565b9350610fb083610f4c565b8060005b83811015610fe1578151610fc88882610f6b565b9750610fd383610f83565b925050600181019050610fb4565b5085935050505092915050565b600060408201905081810360008301526110088185610f90565b9050818103602083015261101c8184610f90565b90509392505050565b600061103082610e7b565b9050919050565b61104081611025565b82525050565b600060208201905061105b6000830184611037565b92915050565b61106a81611025565b811461107557600080fd5b50565b60008135905061108781611061565b92915050565b6000602082840312156110a3576110a2610e76565b5b60006110b184828501611078565b91505092915050565b60006110c582610d3e565b91506110d083610d3e565b9250827fffffffffffffffffffffffffffffffffffffffffffffffffffffffffffffffff0382111561110557611104610d0f565b5b828201905092915050565b7f4e487b7100000000000000000000000000000000000000000000000000000000600052602260045260246000fd5b6000600282049050600182168061115757607f821691505b6020821081141561116b5761116a611110565b5b50919050565b7f4f776e61626c653a2063616c6c6572206973206e6f7420746865206f776e6572600082015250565b60006111a7602083610dc6565b91506111b282611171565b602082019050919050565b600060208201905081810360008301526111d68161119a565b9050919050565b7f4e487b7100000000000000000000000000000000000000000000000000000000600052604160045260246000fd5b7f4e487b7100000000000000000000000000000000000000000000000000000000600052603260045260246000fd5b7f4f776e61626c653a206e6577206f776e657220697320746865207a65726f206160008201527f6464726573730000000000000000000000000000000000000000000000000000602082015250565b6000611297602683610dc6565b91506112a28261123b565b604082019050919050565b600060208201905081810360008301526112c68161128a565b905091905056fea26469706673582212202aafc04371b17f632441069983e8ecb4e926c1674778b83e02fa4c1bbc71467a64736f6c634300080c0033a2646970667358221220e87fa863c32d3445fd0dfa7f37181af7f0c738607967021dd69f4a07e0be2d0d64736f6c634300080c0033",
  "immutableReferences": {},
  "source": "// SPDX-License-Identifier: MIT\n\npragma solidity >=0.8.0 <0.9.0;\n\nimport \"./Fundraiser.sol\";\n\ncontract FundraiserFactory {\n    Fundraiser[] private _fundraisers;\n    uint256 constant maxLimit = 20;\n    event FundraiserCreated(Fundraiser indexed fundraiser);\n\n    function fundraisersCount() public view returns (uint256) {\n        return _fundraisers.length;\n    }\n\n    function createFundraiser(\n        string memory name,\n        string memory url,\n        string memory imageUrl,\n        string memory description,\n        address payable beneficiary\n    ) public {\n        Fundraiser fundraiser = new Fundraiser(\n            name,\n            url,\n            imageUrl,\n            description,\n            beneficiary,\n            msg.sender\n        );\n        _fundraisers.push(fundraiser);\n\n        emit FundraiserCreated(fundraiser);\n    }\n\n    function fundraisers(uint256 limit, uint256 offset)\n        public\n        view\n        returns (Fundraiser[] memory collection)\n    {\n        require(offset <= fundraisersCount(), \"offset out of bounds\");\n\n        uint256 size = fundraisersCount() - offset;\n        size = size < limit ? size : limit;\n        size = size < maxLimit ? size : maxLimit;\n\n        collection = new Fundraiser[](size);\n        for (uint256 i = 0; i < size; i++) {\n            collection[i] = _fundraisers[offset + i];\n        }\n        return collection;\n    }\n}\n",
  "sourcePath": "/Users/tuananh/Documents/ethereum/fundraiser_v2/contracts/FundraiserFactory.sol",
  "compiler": {
    "name": "solc",
    "version": "0.8.12+commit.f00d7308.Emscripten.clang"
  },
  "schemaVersion": "3.4.5",
  "updatedAt": "2022-03-22T05:22:51.299Z",
  "networkType": "ethereum",
  "devdoc": {
    "kind": "dev",
    "methods": {},
    "version": 1
  },
  "userdoc": {
    "kind": "user",
    "methods": {},
    "version": 1
  }
}